{
  "contractName": "Predictor",
  "abi": [
    {
      "inputs": [],
      "payable": false,
      "stateMutability": "nonpayable",
      "type": "constructor"
    },
    {
      "anonymous": false,
      "inputs": [
        {
          "indexed": false,
          "internalType": "uint256",
          "name": "id",
          "type": "uint256"
        },
        {
          "indexed": false,
          "internalType": "address",
          "name": "completer",
          "type": "address"
        },
        {
          "indexed": false,
          "internalType": "address payable",
          "name": "creator",
          "type": "address"
        },
        {
          "indexed": false,
          "internalType": "address payable",
          "name": "accepter",
          "type": "address"
        },
        {
          "indexed": false,
          "internalType": "string",
          "name": "name",
          "type": "string"
        },
        {
          "indexed": false,
          "internalType": "string",
          "name": "acceptanceCriteria",
          "type": "string"
        },
        {
          "indexed": false,
          "internalType": "uint256",
          "name": "betAmount",
          "type": "uint256"
        },
        {
          "indexed": false,
          "internalType": "bool",
          "name": "complete",
          "type": "bool"
        }
      ],
      "name": "PredictionAccepted",
      "type": "event"
    },
    {
      "anonymous": false,
      "inputs": [
        {
          "indexed": false,
          "internalType": "uint256",
          "name": "id",
          "type": "uint256"
        },
        {
          "indexed": false,
          "internalType": "address",
          "name": "completer",
          "type": "address"
        },
        {
          "indexed": false,
          "internalType": "address payable",
          "name": "creator",
          "type": "address"
        },
        {
          "indexed": false,
          "internalType": "address payable",
          "name": "accepter",
          "type": "address"
        },
        {
          "indexed": false,
          "internalType": "string",
          "name": "name",
          "type": "string"
        },
        {
          "indexed": false,
          "internalType": "string",
          "name": "acceptanceCriteria",
          "type": "string"
        },
        {
          "indexed": false,
          "internalType": "uint256",
          "name": "betAmount",
          "type": "uint256"
        },
        {
          "indexed": false,
          "internalType": "bool",
          "name": "complete",
          "type": "bool"
        }
      ],
      "name": "PredictionComplete",
      "type": "event"
    },
    {
      "anonymous": false,
      "inputs": [
        {
          "indexed": false,
          "internalType": "uint256",
          "name": "id",
          "type": "uint256"
        },
        {
          "indexed": false,
          "internalType": "address",
          "name": "completer",
          "type": "address"
        },
        {
          "indexed": false,
          "internalType": "address payable",
          "name": "creator",
          "type": "address"
        },
        {
          "indexed": false,
          "internalType": "address payable",
          "name": "accepter",
          "type": "address"
        },
        {
          "indexed": false,
          "internalType": "string",
          "name": "name",
          "type": "string"
        },
        {
          "indexed": false,
          "internalType": "string",
          "name": "acceptanceCriteria",
          "type": "string"
        },
        {
          "indexed": false,
          "internalType": "uint256",
          "name": "betAmount",
          "type": "uint256"
        },
        {
          "indexed": false,
          "internalType": "bool",
          "name": "complete",
          "type": "bool"
        }
      ],
      "name": "PredictionCreated",
      "type": "event"
    },
    {
      "payable": true,
      "stateMutability": "payable",
      "type": "fallback"
    },
    {
      "constant": true,
      "inputs": [],
      "name": "name",
      "outputs": [
        {
          "internalType": "string",
          "name": "",
          "type": "string"
        }
      ],
      "payable": false,
      "stateMutability": "view",
      "type": "function"
    },
    {
      "constant": true,
      "inputs": [],
      "name": "predictionCount",
      "outputs": [
        {
          "internalType": "uint256",
          "name": "",
          "type": "uint256"
        }
      ],
      "payable": false,
      "stateMutability": "view",
      "type": "function"
    },
    {
      "constant": true,
      "inputs": [
        {
          "internalType": "uint256",
          "name": "",
          "type": "uint256"
        }
      ],
      "name": "predictions",
      "outputs": [
        {
          "internalType": "uint256",
          "name": "id",
          "type": "uint256"
        },
        {
          "internalType": "address",
          "name": "completer",
          "type": "address"
        },
        {
          "internalType": "address payable",
          "name": "creator",
          "type": "address"
        },
        {
          "internalType": "address payable",
          "name": "accepter",
          "type": "address"
        },
        {
          "internalType": "string",
          "name": "name",
          "type": "string"
        },
        {
          "internalType": "string",
          "name": "acceptanceCriteria",
          "type": "string"
        },
        {
          "internalType": "uint256",
          "name": "betAmount",
          "type": "uint256"
        },
        {
          "internalType": "bool",
          "name": "complete",
          "type": "bool"
        }
      ],
      "payable": false,
      "stateMutability": "view",
      "type": "function"
    },
    {
      "constant": false,
      "inputs": [
        {
          "internalType": "string",
          "name": "_name",
          "type": "string"
        },
        {
          "internalType": "string",
          "name": "_acceptanceCriteria",
          "type": "string"
        },
        {
          "internalType": "address",
          "name": "_completer",
          "type": "address"
        }
      ],
      "name": "createPrediction",
      "outputs": [],
      "payable": true,
      "stateMutability": "payable",
      "type": "function"
    },
    {
      "constant": false,
      "inputs": [
        {
          "internalType": "uint256",
          "name": "_id",
          "type": "uint256"
        }
      ],
      "name": "acceptPrediction",
      "outputs": [],
      "payable": true,
      "stateMutability": "payable",
      "type": "function"
    },
    {
      "constant": false,
      "inputs": [
        {
          "internalType": "uint256",
          "name": "_id",
          "type": "uint256"
        },
        {
          "internalType": "address payable",
          "name": "winner",
          "type": "address"
        }
      ],
      "name": "completePrediction",
      "outputs": [],
      "payable": true,
      "stateMutability": "payable",
      "type": "function"
    }
  ],
  "bytecode": "0x608060405260006002553480156200001657600080fd5b506040518060400160405280601681526020017f50726564696374696f6e204d61726b6574706c6163650000000000000000000081525060009080519060200190620000649291906200006b565b506200011a565b828054600181600116156101000203166002900490600052602060002090601f016020900481019282601f10620000ae57805160ff1916838001178555620000df565b82800160010185558215620000df579182015b82811115620000de578251825591602001919060010190620000c1565b5b509050620000ee9190620000f2565b5090565b6200011791905b8082111562000113576000816000905550600101620000f9565b5090565b90565b6119c8806200012a6000396000f3fe6080604052600436106100545760003560e01c80624fbbb01461005657806306fdde0314610228578063650094f9146102b85780638e0596a21461042a578063b6c0472b14610455578063fa565fcc146104a3575b005b34801561006257600080fd5b5061008f6004803603602081101561007957600080fd5b81019080803590602001909291905050506104d1565b604051808981526020018873ffffffffffffffffffffffffffffffffffffffff1673ffffffffffffffffffffffffffffffffffffffff1681526020018773ffffffffffffffffffffffffffffffffffffffff1673ffffffffffffffffffffffffffffffffffffffff1681526020018673ffffffffffffffffffffffffffffffffffffffff1673ffffffffffffffffffffffffffffffffffffffff168152602001806020018060200185815260200184151515158152602001838103835287818151815260200191508051906020019080838360005b8381101561017f578082015181840152602081019050610164565b50505050905090810190601f1680156101ac5780820380516001836020036101000a031916815260200191505b50838103825286818151815260200191508051906020019080838360005b838110156101e55780820151818401526020810190506101ca565b50505050905090810190601f1680156102125780820380516001836020036101000a031916815260200191505b509a505050505050505050505060405180910390f35b34801561023457600080fd5b5061023d6106b6565b6040518080602001828103825283818151815260200191508051906020019080838360005b8381101561027d578082015181840152602081019050610262565b50505050905090810190601f1680156102aa5780820380516001836020036101000a031916815260200191505b509250505060405180910390f35b610428600480360360608110156102ce57600080fd5b81019080803590602001906401000000008111156102eb57600080fd5b8201836020820111156102fd57600080fd5b8035906020019184600183028401116401000000008311171561031f57600080fd5b91908080601f016020809104026020016040519081016040528093929190818152602001838380828437600081840152601f19601f8201169050808301925050505050505091929192908035906020019064010000000081111561038257600080fd5b82018360208201111561039457600080fd5b803590602001918460018302840111640100000000831117156103b657600080fd5b91908080601f016020809104026020016040519081016040528093929190818152602001838380828437600081840152601f19601f820116905080830192505050505050509192919290803573ffffffffffffffffffffffffffffffffffffffff169060200190929190505050610754565b005b34801561043657600080fd5b5061043f610b66565b6040518082815260200191505060405180910390f35b6104a16004803603604081101561046b57600080fd5b8101908080359060200190929190803573ffffffffffffffffffffffffffffffffffffffff169060200190929190505050610b6c565b005b6104cf600480360360208110156104b957600080fd5b81019080803590602001909291905050506111f7565b005b60016020528060005260406000206000915090508060000154908060010160009054906101000a900473ffffffffffffffffffffffffffffffffffffffff16908060020160009054906101000a900473ffffffffffffffffffffffffffffffffffffffff16908060030160009054906101000a900473ffffffffffffffffffffffffffffffffffffffff1690806004018054600181600116156101000203166002900480601f0160208091040260200160405190810160405280929190818152602001828054600181600116156101000203166002900480156105f55780601f106105ca576101008083540402835291602001916105f5565b820191906000526020600020905b8154815290600101906020018083116105d857829003601f168201915b505050505090806005018054600181600116156101000203166002900480601f0160208091040260200160405190810160405280929190818152602001828054600181600116156101000203166002900480156106935780601f1061066857610100808354040283529160200191610693565b820191906000526020600020905b81548152906001019060200180831161067657829003601f168201915b5050505050908060060154908060070160009054906101000a900460ff16905088565b60008054600181600116156101000203166002900480601f01602080910402602001604051908101604052809291908181526020018280546001816001161561010002031660029004801561074c5780601f106107215761010080835404028352916020019161074c565b820191906000526020600020905b81548152906001019060200180831161072f57829003601f168201915b505050505081565b6000349050600260008154809291906001019190505550610773611865565b60405180610100016040528060025481526020018473ffffffffffffffffffffffffffffffffffffffff1681526020013373ffffffffffffffffffffffffffffffffffffffff168152602001600073ffffffffffffffffffffffffffffffffffffffff168152602001868152602001858152602001838152602001600015158152509050806001600060025481526020019081526020016000206000820151816000015560208201518160010160006101000a81548173ffffffffffffffffffffffffffffffffffffffff021916908373ffffffffffffffffffffffffffffffffffffffff16021790555060408201518160020160006101000a81548173ffffffffffffffffffffffffffffffffffffffff021916908373ffffffffffffffffffffffffffffffffffffffff16021790555060608201518160030160006101000a81548173ffffffffffffffffffffffffffffffffffffffff021916908373ffffffffffffffffffffffffffffffffffffffff16021790555060808201518160040190805190602001906109089291906118ee565b5060a08201518160050190805190602001906109259291906118ee565b5060c0820151816006015560e08201518160070160006101000a81548160ff0219169083151502179055509050503073ffffffffffffffffffffffffffffffffffffffff166108fc839081150290604051600060405180830381858888f19350505050158015610999573d6000803e3d6000fd5b507fb2fdebfffbdb15d8705c7a3f8ab086c8074b597cedd75c3f71d58b6aa115aac8600254843360008989886000604051808981526020018873ffffffffffffffffffffffffffffffffffffffff1673ffffffffffffffffffffffffffffffffffffffff1681526020018773ffffffffffffffffffffffffffffffffffffffff1673ffffffffffffffffffffffffffffffffffffffff1681526020018673ffffffffffffffffffffffffffffffffffffffff1673ffffffffffffffffffffffffffffffffffffffff168152602001806020018060200185815260200184151515158152602001838103835287818151815260200191508051906020019080838360005b83811015610ab7578082015181840152602081019050610a9c565b50505050905090810190601f168015610ae45780820380516001836020036101000a031916815260200191505b50838103825286818151815260200191508051906020019080838360005b83811015610b1d578082015181840152602081019050610b02565b50505050905090810190601f168015610b4a5780820380516001836020036101000a031916815260200191505b509a505050505050505050505060405180910390a15050505050565b60025481565b610b74611865565b6001600084815260200190815260200160002060405180610100016040529081600082015481526020016001820160009054906101000a900473ffffffffffffffffffffffffffffffffffffffff1673ffffffffffffffffffffffffffffffffffffffff1673ffffffffffffffffffffffffffffffffffffffff1681526020016002820160009054906101000a900473ffffffffffffffffffffffffffffffffffffffff1673ffffffffffffffffffffffffffffffffffffffff1673ffffffffffffffffffffffffffffffffffffffff1681526020016003820160009054906101000a900473ffffffffffffffffffffffffffffffffffffffff1673ffffffffffffffffffffffffffffffffffffffff1673ffffffffffffffffffffffffffffffffffffffff168152602001600482018054600181600116156101000203166002900480601f016020809104026020016040519081016040528092919081815260200182805460018160011615610100020316600290048015610d385780601f10610d0d57610100808354040283529160200191610d38565b820191906000526020600020905b815481529060010190602001808311610d1b57829003601f168201915b50505050508152602001600582018054600181600116156101000203166002900480601f016020809104026020016040519081016040528092919081815260200182805460018160011615610100020316600290048015610dda5780601f10610daf57610100808354040283529160200191610dda565b820191906000526020600020905b815481529060010190602001808311610dbd57829003601f168201915b50505050508152602001600682015481526020016007820160009054906101000a900460ff1615151515815250509050600015158160e00151151514610e1f57600080fd5b600073ffffffffffffffffffffffffffffffffffffffff16816060015173ffffffffffffffffffffffffffffffffffffffff161415610e5d57600080fd5b60018160e001901515908115158152505080600160008581526020019081526020016000206000820151816000015560208201518160010160006101000a81548173ffffffffffffffffffffffffffffffffffffffff021916908373ffffffffffffffffffffffffffffffffffffffff16021790555060408201518160020160006101000a81548173ffffffffffffffffffffffffffffffffffffffff021916908373ffffffffffffffffffffffffffffffffffffffff16021790555060608201518160030160006101000a81548173ffffffffffffffffffffffffffffffffffffffff021916908373ffffffffffffffffffffffffffffffffffffffff1602179055506080820151816004019080519060200190610f7d9291906118ee565b5060a0820151816005019080519060200190610f9a9291906118ee565b5060c0820151816006015560e08201518160070160006101000a81548160ff0219169083151502179055509050508173ffffffffffffffffffffffffffffffffffffffff166108fc60028360c00151029081150290604051600060405180830381858888f19350505050158015611015573d6000803e3d6000fd5b507f68ffb6b1f8aab10246b4d819c959b359a39eb80720c9cd091552f9a5f9481cbc60025482602001518360400151846060015185608001518660a001518760c001516001604051808981526020018873ffffffffffffffffffffffffffffffffffffffff1673ffffffffffffffffffffffffffffffffffffffff1681526020018773ffffffffffffffffffffffffffffffffffffffff1673ffffffffffffffffffffffffffffffffffffffff1681526020018673ffffffffffffffffffffffffffffffffffffffff1673ffffffffffffffffffffffffffffffffffffffff168152602001806020018060200185815260200184151515158152602001838103835287818151815260200191508051906020019080838360005b8381101561114a57808201518184015260208101905061112f565b50505050905090810190601f1680156111775780820380516001836020036101000a031916815260200191505b50838103825286818151815260200191508051906020019080838360005b838110156111b0578082015181840152602081019050611195565b50505050905090810190601f1680156111dd5780820380516001836020036101000a031916815260200191505b509a505050505050505050505060405180910390a1505050565b6111ff611865565b6001600083815260200190815260200160002060405180610100016040529081600082015481526020016001820160009054906101000a900473ffffffffffffffffffffffffffffffffffffffff1673ffffffffffffffffffffffffffffffffffffffff1673ffffffffffffffffffffffffffffffffffffffff1681526020016002820160009054906101000a900473ffffffffffffffffffffffffffffffffffffffff1673ffffffffffffffffffffffffffffffffffffffff1673ffffffffffffffffffffffffffffffffffffffff1681526020016003820160009054906101000a900473ffffffffffffffffffffffffffffffffffffffff1673ffffffffffffffffffffffffffffffffffffffff1673ffffffffffffffffffffffffffffffffffffffff168152602001600482018054600181600116156101000203166002900480601f0160208091040260200160405190810160405280929190818152602001828054600181600116156101000203166002900480156113c35780601f10611398576101008083540402835291602001916113c3565b820191906000526020600020905b8154815290600101906020018083116113a657829003601f168201915b50505050508152602001600582018054600181600116156101000203166002900480601f0160208091040260200160405190810160405280929190818152602001828054600181600116156101000203166002900480156114655780601f1061143a57610100808354040283529160200191611465565b820191906000526020600020905b81548152906001019060200180831161144857829003601f168201915b50505050508152602001600682015481526020016007820160009054906101000a900460ff1615151515815250509050600015158160e001511515146114aa57600080fd5b33816060019073ffffffffffffffffffffffffffffffffffffffff16908173ffffffffffffffffffffffffffffffffffffffff168152505060008160c0015190503073ffffffffffffffffffffffffffffffffffffffff166108fc349081150290604051600060405180830381858888f19350505050158015611531573d6000803e3d6000fd5b5081600160008581526020019081526020016000206000820151816000015560208201518160010160006101000a81548173ffffffffffffffffffffffffffffffffffffffff021916908373ffffffffffffffffffffffffffffffffffffffff16021790555060408201518160020160006101000a81548173ffffffffffffffffffffffffffffffffffffffff021916908373ffffffffffffffffffffffffffffffffffffffff16021790555060608201518160030160006101000a81548173ffffffffffffffffffffffffffffffffffffffff021916908373ffffffffffffffffffffffffffffffffffffffff16021790555060808201518160040190805190602001906116419291906118ee565b5060a082015181600501908051906020019061165e9291906118ee565b5060c0820151816006015560e08201518160070160006101000a81548160ff0219169083151502179055509050507f0c1b370826e7f612ca8807506d5b85b76d10b99bc043ba1c410a6376ce4ebdb5600254836020015184604001513386608001518760a00151876000604051808981526020018873ffffffffffffffffffffffffffffffffffffffff1673ffffffffffffffffffffffffffffffffffffffff1681526020018773ffffffffffffffffffffffffffffffffffffffff1673ffffffffffffffffffffffffffffffffffffffff1681526020018673ffffffffffffffffffffffffffffffffffffffff1673ffffffffffffffffffffffffffffffffffffffff168152602001806020018060200185815260200184151515158152602001838103835287818151815260200191508051906020019080838360005b838110156117b857808201518184015260208101905061179d565b50505050905090810190601f1680156117e55780820380516001836020036101000a031916815260200191505b50838103825286818151815260200191508051906020019080838360005b8381101561181e578082015181840152602081019050611803565b50505050905090810190601f16801561184b5780820380516001836020036101000a031916815260200191505b509a505050505050505050505060405180910390a1505050565b60405180610100016040528060008152602001600073ffffffffffffffffffffffffffffffffffffffff168152602001600073ffffffffffffffffffffffffffffffffffffffff168152602001600073ffffffffffffffffffffffffffffffffffffffff1681526020016060815260200160608152602001600081526020016000151581525090565b828054600181600116156101000203166002900490600052602060002090601f016020900481019282601f1061192f57805160ff191683800117855561195d565b8280016001018555821561195d579182015b8281111561195c578251825591602001919060010190611941565b5b50905061196a919061196e565b5090565b61199091905b8082111561198c576000816000905550600101611974565b5090565b9056fea265627a7a72315820815b195221a2fdbf233e31c90819d3154bd02f7ec20a87b93976e8f4b177f32864736f6c63430005100032",
  "source": "pragma solidity ^0.5.0;\r\n\r\ncontract Predictor {\r\n    string public name;\r\n    mapping(uint => Prediction) public predictions; // need a place to store every prediction created - Key => Value\r\n    uint public predictionCount = 0; \r\n    \r\n    constructor() public {\r\n        name = \"Prediction Marketplace\";\r\n    }\r\n\r\n// A Prediction will be something that a user submits along with the amount of ether they want to bet\r\n// Initially, a third party will have to confirm or deny that the prediction came true (oracles eventually??)\r\n    struct Prediction {\r\n        uint id;\r\n        address completer;\r\n        address payable creator;\r\n        address payable accepter;\r\n        string name; \r\n        string acceptanceCriteria; // how do we know if the prediction came true or not?\r\n        uint betAmount;\r\n        bool complete;\r\n    }\r\n\r\n    event PredictionCreated (\r\n        uint id,\r\n        address completer,\r\n        address payable creator,\r\n        address payable accepter,\r\n        string name,\r\n        string acceptanceCriteria,\r\n        uint betAmount,\r\n        bool complete\r\n    );\r\n\r\n    event PredictionAccepted (\r\n        uint id,\r\n        address completer,\r\n        address payable creator,\r\n        address payable accepter,\r\n        string name,\r\n        string acceptanceCriteria,\r\n        uint betAmount,\r\n        bool complete\r\n    );\r\n\r\n    event PredictionComplete (\r\n        uint id,\r\n        address completer,\r\n        address payable creator,\r\n        address payable accepter,\r\n        string name,\r\n        string acceptanceCriteria,\r\n        uint betAmount,\r\n        bool complete\r\n    );\r\n\r\n    // create predictions\r\n    function createPrediction(string memory _name, string memory _acceptanceCriteria, address _completer) public payable {\r\n        // require(bytes(_name).length > 0);\r\n        // require(bytes(_acceptanceCriteria).length > 0);\r\n        // require(_betAmount > 0);\r\n        uint _betAmount = msg.value;\r\n        predictionCount++;\r\n\r\n        // create the prediction\r\n        Prediction memory prediction = Prediction(predictionCount, _completer, msg.sender, address(0), _name, _acceptanceCriteria, _betAmount, false);\r\n\r\n        predictions[predictionCount] = prediction;\r\n\r\n        // transfer ether from creator to contract\r\n        //address payable contractAddress = address(this);\r\n        address(this).transfer(_betAmount);\r\n\r\n        emit PredictionCreated(predictionCount, _completer, msg.sender, address(0), _name, _acceptanceCriteria, _betAmount, false);\r\n    }\r\n\r\n    // accepting a prediction is defined as a user seeing a prediction and clicking the 'accept' button next to it\r\n    // this is them saying \"I think that's wrong, so I will bet against it\"\r\n    function acceptPrediction(uint _id) public payable {\r\n        // the accepter will need to put money up too, just using the same amount as the creator for now\r\n\r\n        // set the accepter for the prediction to be the sender of this contract call\r\n        Prediction memory _prediction = predictions[_id];\r\n        require(_prediction.complete == false);\r\n        _prediction.accepter = msg.sender;\r\n\r\n        uint _betAmount = _prediction.betAmount;\r\n\r\n        // transfer ether from accepter to contract (accepter is taken from the \"from: \" metadata)\r\n        address(this).transfer(msg.value);\r\n\r\n        predictions[_id] = _prediction;\r\n\r\n        emit PredictionAccepted(predictionCount, _prediction.completer, _prediction.creator, msg.sender, _prediction.name, _prediction.acceptanceCriteria, _betAmount, false);\r\n    }\r\n\r\n    // mark a prediction as complete and pay out to winner\r\n    function completePrediction(uint _id, address payable winner) public payable {\r\n        Prediction memory _prediction = predictions[_id];\r\n        require(_prediction.complete == false);\r\n        require(_prediction.accepter != address(0)); // I think this is enough to make sure there is an accepter, not 100% though\r\n        \r\n        _prediction.complete = true; // set the prediction as complete (it either came true or not)\r\n        predictions[_id] = _prediction;\r\n\r\n        // pay the winner\r\n        address(winner).transfer(_prediction.betAmount*2); // would need to adjust if there are more than 2 participants(need to think more about how more than 2 participants would work)\r\n\r\n        emit PredictionComplete(predictionCount, _prediction.completer, _prediction.creator, _prediction.accepter, _prediction.name, _prediction.acceptanceCriteria, _prediction.betAmount, true);\r\n    }\r\n\r\n\r\n    // what else?\r\n    // probably need to be able to null out a prediction for some cases\r\n    // Add a timeout for each prediction?\r\n    // it sucks that a third party has to physically complete a prediction\r\n    // maybe add option for betting different amounts, but how would it work\r\n    //  - the creator sets original amount\r\n    //  - a potential accepter proposes a different amount and the creator either accepts or denies\r\n    //  - alternatively the potential accepter just creates a new prediction\r\n\r\n\r\n\r\n\r\n\r\n\r\n\r\n    // this is needed to send money to contract address\r\n    function() external payable {}\r\n\r\n}",
  "sourcePath": "C:/Users/dmidy/Solidity/test/contracts/Predictor.sol",
  "compiler": {
    "name": "solc",
    "version": "0.5.16+commit.9c3226ce.Emscripten.clang"
  },
  "schemaVersion": "3.4.1",
  "updatedAt": "2021-08-04T01:25:08.693Z",
  "devdoc": {
    "methods": {}
  },
  "userdoc": {
    "methods": {}
  }
}