{
  "contractName": "Predictor",
  "abi": [
    {
      "inputs": [],
      "payable": false,
      "stateMutability": "nonpayable",
      "type": "constructor"
    },
    {
      "anonymous": false,
      "inputs": [
        {
          "indexed": false,
          "internalType": "uint256",
          "name": "id",
          "type": "uint256"
        },
        {
          "indexed": false,
          "internalType": "address payable",
          "name": "creator",
          "type": "address"
        },
        {
          "indexed": false,
          "internalType": "address payable",
          "name": "accepter",
          "type": "address"
        },
        {
          "indexed": false,
          "internalType": "string",
          "name": "name",
          "type": "string"
        },
        {
          "indexed": false,
          "internalType": "string",
          "name": "acceptanceCriteria",
          "type": "string"
        },
        {
          "indexed": false,
          "internalType": "uint256",
          "name": "betAmount",
          "type": "uint256"
        },
        {
          "indexed": false,
          "internalType": "bool",
          "name": "complete",
          "type": "bool"
        }
      ],
      "name": "PredictionAccepted",
      "type": "event"
    },
    {
      "anonymous": false,
      "inputs": [
        {
          "indexed": false,
          "internalType": "uint256",
          "name": "id",
          "type": "uint256"
        },
        {
          "indexed": false,
          "internalType": "address payable",
          "name": "creator",
          "type": "address"
        },
        {
          "indexed": false,
          "internalType": "address payable",
          "name": "accepter",
          "type": "address"
        },
        {
          "indexed": false,
          "internalType": "string",
          "name": "name",
          "type": "string"
        },
        {
          "indexed": false,
          "internalType": "string",
          "name": "acceptanceCriteria",
          "type": "string"
        },
        {
          "indexed": false,
          "internalType": "uint256",
          "name": "betAmount",
          "type": "uint256"
        },
        {
          "indexed": false,
          "internalType": "bool",
          "name": "complete",
          "type": "bool"
        }
      ],
      "name": "PredictionCreated",
      "type": "event"
    },
    {
      "payable": true,
      "stateMutability": "payable",
      "type": "fallback"
    },
    {
      "constant": true,
      "inputs": [],
      "name": "contractAddress",
      "outputs": [
        {
          "internalType": "address payable",
          "name": "",
          "type": "address"
        }
      ],
      "payable": false,
      "stateMutability": "view",
      "type": "function"
    },
    {
      "constant": true,
      "inputs": [],
      "name": "contractAddress1",
      "outputs": [
        {
          "internalType": "address",
          "name": "",
          "type": "address"
        }
      ],
      "payable": false,
      "stateMutability": "view",
      "type": "function"
    },
    {
      "constant": true,
      "inputs": [],
      "name": "name",
      "outputs": [
        {
          "internalType": "string",
          "name": "",
          "type": "string"
        }
      ],
      "payable": false,
      "stateMutability": "view",
      "type": "function"
    },
    {
      "constant": true,
      "inputs": [],
      "name": "predictionCount",
      "outputs": [
        {
          "internalType": "uint256",
          "name": "",
          "type": "uint256"
        }
      ],
      "payable": false,
      "stateMutability": "view",
      "type": "function"
    },
    {
      "constant": true,
      "inputs": [
        {
          "internalType": "uint256",
          "name": "",
          "type": "uint256"
        }
      ],
      "name": "predictions",
      "outputs": [
        {
          "internalType": "uint256",
          "name": "id",
          "type": "uint256"
        },
        {
          "internalType": "address payable",
          "name": "creator",
          "type": "address"
        },
        {
          "internalType": "address payable",
          "name": "accepter",
          "type": "address"
        },
        {
          "internalType": "string",
          "name": "name",
          "type": "string"
        },
        {
          "internalType": "string",
          "name": "acceptanceCriteria",
          "type": "string"
        },
        {
          "internalType": "uint256",
          "name": "betAmount",
          "type": "uint256"
        },
        {
          "internalType": "bool",
          "name": "complete",
          "type": "bool"
        }
      ],
      "payable": false,
      "stateMutability": "view",
      "type": "function"
    },
    {
      "constant": false,
      "inputs": [
        {
          "internalType": "string",
          "name": "_name",
          "type": "string"
        },
        {
          "internalType": "string",
          "name": "_acceptanceCriteria",
          "type": "string"
        }
      ],
      "name": "createPrediction",
      "outputs": [],
      "payable": true,
      "stateMutability": "payable",
      "type": "function"
    },
    {
      "constant": false,
      "inputs": [
        {
          "internalType": "uint256",
          "name": "_id",
          "type": "uint256"
        }
      ],
      "name": "acceptPrediction",
      "outputs": [],
      "payable": true,
      "stateMutability": "payable",
      "type": "function"
    }
  ],
  "bytecode": "0x6080604052600060025530600360006101000a81548173ffffffffffffffffffffffffffffffffffffffff021916908373ffffffffffffffffffffffffffffffffffffffff160217905550735a08ebdeda9e3fbaeb94386146e7bdcf737a87d5600460006101000a81548173ffffffffffffffffffffffffffffffffffffffff021916908373ffffffffffffffffffffffffffffffffffffffff160217905550348015620000ac57600080fd5b506040518060400160405280601681526020017f50726564696374696f6e204d61726b6574706c6163650000000000000000000081525060009080519060200190620000fa92919062000101565b50620001b0565b828054600181600116156101000203166002900490600052602060002090601f016020900481019282601f106200014457805160ff191683800117855562000175565b8280016001018555821562000175579182015b828111156200017457825182559160200191906001019062000157565b5b50905062000184919062000188565b5090565b620001ad91905b80821115620001a95760008160009055506001016200018f565b5090565b90565b61124080620001c06000396000f3fe60806040526004361061006f5760003560e01c80637bc028061161004e5780637bc02806146103f25780638e0596a214610449578063f6b4dfb414610474578063fa565fcc146104cb5761006f565b80624fbbb01461007157806306fdde03146102105780632bb810d2146102a0575b005b34801561007d57600080fd5b506100aa6004803603602081101561009457600080fd5b81019080803590602001909291905050506104f9565b604051808881526020018773ffffffffffffffffffffffffffffffffffffffff1673ffffffffffffffffffffffffffffffffffffffff1681526020018673ffffffffffffffffffffffffffffffffffffffff1673ffffffffffffffffffffffffffffffffffffffff168152602001806020018060200185815260200184151515158152602001838103835287818151815260200191508051906020019080838360005b8381101561016857808201518184015260208101905061014d565b50505050905090810190601f1680156101955780820380516001836020036101000a031916815260200191505b50838103825286818151815260200191508051906020019080838360005b838110156101ce5780820151818401526020810190506101b3565b50505050905090810190601f1680156101fb5780820380516001836020036101000a031916815260200191505b50995050505050505050505060405180910390f35b34801561021c57600080fd5b506102256106b8565b6040518080602001828103825283818151815260200191508051906020019080838360005b8381101561026557808201518184015260208101905061024a565b50505050905090810190601f1680156102925780820380516001836020036101000a031916815260200191505b509250505060405180910390f35b6103f0600480360360408110156102b657600080fd5b81019080803590602001906401000000008111156102d357600080fd5b8201836020820111156102e557600080fd5b8035906020019184600183028401116401000000008311171561030757600080fd5b91908080601f016020809104026020016040519081016040528093929190818152602001838380828437600081840152601f19601f8201169050808301925050505050505091929192908035906020019064010000000081111561036a57600080fd5b82018360208201111561037c57600080fd5b8035906020019184600183028401116401000000008311171561039e57600080fd5b91908080601f016020809104026020016040519081016040528093929190818152602001838380828437600081840152601f19601f820116905080830192505050505050509192919290505050610756565b005b3480156103fe57600080fd5b50610407610afe565b604051808273ffffffffffffffffffffffffffffffffffffffff1673ffffffffffffffffffffffffffffffffffffffff16815260200191505060405180910390f35b34801561045557600080fd5b5061045e610b24565b6040518082815260200191505060405180910390f35b34801561048057600080fd5b50610489610b2a565b604051808273ffffffffffffffffffffffffffffffffffffffff1673ffffffffffffffffffffffffffffffffffffffff16815260200191505060405180910390f35b6104f7600480360360208110156104e157600080fd5b8101908080359060200190929190505050610b50565b005b60016020528060005260406000206000915090508060000154908060010160009054906101000a900473ffffffffffffffffffffffffffffffffffffffff16908060020160009054906101000a900473ffffffffffffffffffffffffffffffffffffffff1690806003018054600181600116156101000203166002900480601f0160208091040260200160405190810160405280929190818152602001828054600181600116156101000203166002900480156105f75780601f106105cc576101008083540402835291602001916105f7565b820191906000526020600020905b8154815290600101906020018083116105da57829003601f168201915b505050505090806004018054600181600116156101000203166002900480601f0160208091040260200160405190810160405280929190818152602001828054600181600116156101000203166002900480156106955780601f1061066a57610100808354040283529160200191610695565b820191906000526020600020905b81548152906001019060200180831161067857829003601f168201915b5050505050908060050154908060060160009054906101000a900460ff16905087565b60008054600181600116156101000203166002900480601f01602080910402602001604051908101604052809291908181526020018280546001816001161561010002031660029004801561074e5780601f106107235761010080835404028352916020019161074e565b820191906000526020600020905b81548152906001019060200180831161073157829003601f168201915b505050505081565b60003390506000349050600084511161076e57600080fd5b600083511161077c57600080fd5b6000811161078957600080fd5b6002600081548092919060010191905055506107a36110fb565b6040518060e0016040528060025481526020013373ffffffffffffffffffffffffffffffffffffffff168152602001600073ffffffffffffffffffffffffffffffffffffffff168152602001868152602001858152602001838152602001600015158152509050806001600060025481526020019081526020016000206000820151816000015560208201518160010160006101000a81548173ffffffffffffffffffffffffffffffffffffffff021916908373ffffffffffffffffffffffffffffffffffffffff16021790555060408201518160020160006101000a81548173ffffffffffffffffffffffffffffffffffffffff021916908373ffffffffffffffffffffffffffffffffffffffff16021790555060608201518160030190805190602001906108d4929190611166565b5060808201518160040190805190602001906108f1929190611166565b5060a0820151816005015560c08201518160060160006101000a81548160ff0219169083151502179055509050503073ffffffffffffffffffffffffffffffffffffffff166108fc349081150290604051600060405180830381858888f19350505050158015610965573d6000803e3d6000fd5b507f389197da4323dd4422303c63ac660fb8ef677f2dc53a48a37738cea6e70f9c766002543360008888876000604051808881526020018773ffffffffffffffffffffffffffffffffffffffff1673ffffffffffffffffffffffffffffffffffffffff1681526020018673ffffffffffffffffffffffffffffffffffffffff1673ffffffffffffffffffffffffffffffffffffffff168152602001806020018060200185815260200184151515158152602001838103835287818151815260200191508051906020019080838360005b83811015610a50578082015181840152602081019050610a35565b50505050905090810190601f168015610a7d5780820380516001836020036101000a031916815260200191505b50838103825286818151815260200191508051906020019080838360005b83811015610ab6578082015181840152602081019050610a9b565b50505050905090810190601f168015610ae35780820380516001836020036101000a031916815260200191505b50995050505050505050505060405180910390a15050505050565b600360009054906101000a900473ffffffffffffffffffffffffffffffffffffffff1681565b60025481565b600460009054906101000a900473ffffffffffffffffffffffffffffffffffffffff1681565b6000339050610b5d6110fb565b600160008481526020019081526020016000206040518060e0016040529081600082015481526020016001820160009054906101000a900473ffffffffffffffffffffffffffffffffffffffff1673ffffffffffffffffffffffffffffffffffffffff1673ffffffffffffffffffffffffffffffffffffffff1681526020016002820160009054906101000a900473ffffffffffffffffffffffffffffffffffffffff1673ffffffffffffffffffffffffffffffffffffffff1673ffffffffffffffffffffffffffffffffffffffff168152602001600382018054600181600116156101000203166002900480601f016020809104026020016040519081016040528092919081815260200182805460018160011615610100020316600290048015610cca5780601f10610c9f57610100808354040283529160200191610cca565b820191906000526020600020905b815481529060010190602001808311610cad57829003601f168201915b50505050508152602001600482018054600181600116156101000203166002900480601f016020809104026020016040519081016040528092919081815260200182805460018160011615610100020316600290048015610d6c5780601f10610d4157610100808354040283529160200191610d6c565b820191906000526020600020905b815481529060010190602001808311610d4f57829003601f168201915b50505050508152602001600582015481526020016006820160009054906101000a900460ff161515151581525050905033816040019073ffffffffffffffffffffffffffffffffffffffff16908173ffffffffffffffffffffffffffffffffffffffff168152505060008160a001519050600460009054906101000a900473ffffffffffffffffffffffffffffffffffffffff1673ffffffffffffffffffffffffffffffffffffffff166108fc349081150290604051600060405180830381858888f19350505050158015610e45573d6000803e3d6000fd5b5081600160008681526020019081526020016000206000820151816000015560208201518160010160006101000a81548173ffffffffffffffffffffffffffffffffffffffff021916908373ffffffffffffffffffffffffffffffffffffffff16021790555060408201518160020160006101000a81548173ffffffffffffffffffffffffffffffffffffffff021916908373ffffffffffffffffffffffffffffffffffffffff1602179055506060820151816003019080519060200190610f0e929190611166565b506080820151816004019080519060200190610f2b929190611166565b5060a0820151816005015560c08201518160060160006101000a81548160ff0219169083151502179055509050507feabbebdb4ec94112d48967a774328a104babd32de55a7787c936ba4888d4b1a760025483602001513385606001518660800151866000604051808881526020018773ffffffffffffffffffffffffffffffffffffffff1673ffffffffffffffffffffffffffffffffffffffff1681526020018673ffffffffffffffffffffffffffffffffffffffff1673ffffffffffffffffffffffffffffffffffffffff168152602001806020018060200185815260200184151515158152602001838103835287818151815260200191508051906020019080838360005b8381101561104e578082015181840152602081019050611033565b50505050905090810190601f16801561107b5780820380516001836020036101000a031916815260200191505b50838103825286818151815260200191508051906020019080838360005b838110156110b4578082015181840152602081019050611099565b50505050905090810190601f1680156110e15780820380516001836020036101000a031916815260200191505b50995050505050505050505060405180910390a150505050565b6040518060e0016040528060008152602001600073ffffffffffffffffffffffffffffffffffffffff168152602001600073ffffffffffffffffffffffffffffffffffffffff1681526020016060815260200160608152602001600081526020016000151581525090565b828054600181600116156101000203166002900490600052602060002090601f016020900481019282601f106111a757805160ff19168380011785556111d5565b828001600101855582156111d5579182015b828111156111d45782518255916020019190600101906111b9565b5b5090506111e291906111e6565b5090565b61120891905b808211156112045760008160009055506001016111ec565b5090565b9056fea265627a7a72315820e666e01bb9e67f44db2447539ce83c2be3a020cb6e3bc4f73437647e5c74babb64736f6c63430005100032",
  "source": "pragma solidity ^0.5.0;\r\n\r\ncontract Predictor {\r\n    string public name;\r\n    mapping(uint => Prediction) public predictions; // need a place to store every prediction created - Key => Value\r\n    uint public predictionCount = 0; \r\n    address public contractAddress1 = address(this);\r\n    address payable public contractAddress = 0x5a08Ebdeda9e3Fbaeb94386146E7bDCF737A87d5; // for ganache tests only\r\n    \r\n    constructor() public {\r\n        name = \"Prediction Marketplace\";\r\n    }\r\n\r\n// A Prediction will be something that a user submits along with the amount of ether they want to bet that it comes true\r\n// Initially, a third party will have to confirm or deny that the prediction came true (oracles eventually??)\r\n    struct Prediction {\r\n        uint id;\r\n        address payable creator;\r\n        address payable accepter;\r\n        string name; \r\n        string acceptanceCriteria; // how do we know if the prediction came true or not?\r\n        uint betAmount;\r\n        bool complete;\r\n    }\r\n\r\n    event PredictionCreated (\r\n        uint id,\r\n        address payable creator,\r\n        address payable accepter,\r\n        string name,\r\n        string acceptanceCriteria,\r\n        uint betAmount,\r\n        bool complete\r\n    );\r\n\r\n    event PredictionAccepted (\r\n        uint id,\r\n        address payable creator,\r\n        address payable accepter,\r\n        string name,\r\n        string acceptanceCriteria,\r\n        uint betAmount,\r\n        bool complete\r\n    );\r\n\r\n    // create predictions\r\n    function createPrediction(string memory _name, string memory _acceptanceCriteria) public payable {\r\n        address payable _creator = msg.sender;\r\n        uint _betAmount = msg.value;\r\n        require(bytes(_name).length > 0);\r\n        require(bytes(_acceptanceCriteria).length > 0);\r\n        require(_betAmount > 0);\r\n        //require(creator.balance >= _betAmount, \"Creator must have betAmount in wallet\");\r\n\r\n        \r\n        predictionCount++;\r\n        // create the prediction\r\n        Prediction memory prediction = Prediction(predictionCount, msg.sender, address(0), _name, _acceptanceCriteria, _betAmount, false);\r\n\r\n        predictions[predictionCount] = prediction;\r\n\r\n        // transfer ether from creator to contract\r\n        //address payable contractAddress = address(this);\r\n        address(this).transfer(msg.value);\r\n\r\n        emit PredictionCreated(predictionCount, msg.sender, address(0), _name, _acceptanceCriteria, _betAmount, false);\r\n    }\r\n\r\n    // accepting a prediction is defined as a user seeing a prediction and clicking the 'accept' button next to it\r\n    // this is them saying \"I think that's wrong, so I will bet against it\"\r\n    function acceptPrediction(uint _id) public payable {\r\n        // the accepter will need to put money up too, just using the same amount as the creator for now\r\n        address payable _accepter = msg.sender;\r\n\r\n        // set the accepter for the prediction to be the sender of this contract call\r\n        Prediction memory _prediction = predictions[_id];\r\n        _prediction.accepter = msg.sender;\r\n\r\n        uint _betAmount = _prediction.betAmount;\r\n\r\n        // transfer ether from accepter to contract\r\n        address(contractAddress).transfer(msg.value);\r\n\r\n        predictions[_id] = _prediction;\r\n\r\n        emit PredictionAccepted(predictionCount, _prediction.creator, msg.sender, _prediction.name, _prediction.acceptanceCriteria, _betAmount, false);\r\n    }\r\n\r\n    function() external payable {}\r\n\r\n}",
  "sourcePath": "C:/Users/dmidy/Solidity/test/contracts/Predictor.sol",
  "compiler": {
    "name": "solc",
    "version": "0.5.16+commit.9c3226ce.Emscripten.clang"
  },
  "schemaVersion": "3.4.1",
  "updatedAt": "2021-07-25T23:56:01.322Z",
  "devdoc": {
    "methods": {}
  },
  "userdoc": {
    "methods": {}
  }
}